:020000040800F2
:1000000008060020450100085B1800084D1600088E
:10001000591800088D010008051C000800000000A8
:100020000000000000000000000000007F18000831
:10003000EB010008000000007D180008811800088E
:100040005F0100085F0100085F0100085F01000810
:100050005F0100085F0100085F0100085F01000800
:100060005F0100085F0100085F0100085F010008F0
:10007000910100089D010008A9010008B5010008D0
:100080005F0100085F0100085F0100085F010008D0
:100090005F0100085F0100085F0100085F010008C0
:1000A0005F0100085F0100085F0100085F010008B0
:1000B0005F0100085F0100085F0100085F010008A0
:1000C0005F0100085F0100085F0100085F01000890
:1000D0005F0100085F0100085F0100085F01000880
:1000E0005F0100085F0100085F0100085F01000870
:1000F0005F0100085F0100085F0100085F01000860
:100100005F0100085F0100085F0100085F0100084F
:100110005F0100085F0100085F0100085F0100083F
:100120005F0100085F0100085F0100085F0100082F
:10013000DFF80CD000F018F800480047291C000830
:10014000080600200648804706480047FEE7FEE70D
:10015000FEE7FEE7FEE7FEE7FEE7FEE7FEE7FEE777
:10016000F518000831010008064C074D06E0E0686C
:1001700040F0010394E8070098471034AC42F6D3EE
:10018000FFF7DAFFE41D0008041E0008FEE7000088
:10019000014800F02BB80000C4010020014800F025
:1001A00025B8000080010020014800F01FB80000C1
:1001B0003C010020014800F019B80000F8000020C0
:1001C00030B590F840500124AC40C56B6C600468B9
:1001D00063604368102B036803D099600068C260B5
:1001E00030BD9A600068C16030BD70472DE9F05F96
:1001F000C16B0A6801680B68046C4FF0040808FAC8
:1002000004F8844D844E854FDFF814C2DFF8149251
:10021000DFF814A2DFF814B2DFF814E218EA020FD4
:1002200065D05FEA437862D50A68920603D40A680B
:1002300022F004020A60DFF8F0814FF48062016866
:1002400008F1140813011402414524D9A9420DD024
:10025000B1420FD0B9421AD0614515D0494515D0E9
:10026000514501D1120312E0594501D104220EE09B
:10027000714501D140220AE06D4D1435A94206D0E6
:100280006B4A2832914201D11A4600E02246674962
:10029000091F0A6029E0A94213D0B14215D0B94222
:1002A00020D061451BD049451BD0514502D14FF4A8
:1002B000800217E0414502D14FF0806212E05945BB
:1002C00001D104220EE0714501D140220AE0584DCF
:1002D0001435A94206D0564A2832914201D11A4615
:1002E00000E022464B4908394A60C16A71E04FF08C
:1002F000020808FA04F818EA020F70D05FEA83785F
:100300006DD50A68920606D40A6822F00A020A60CD
:10031000012180F82110DFF810814FF4007201688C
:1003200008F1140813011402414524D9A9420DD043
:10033000B1420FD0B9421AD0614515D0494515D008
:10034000514501D1120312E0594501D102220EE0BC
:10035000714501D120220AE0354D1435A94206D05D
:10036000334A2832914201D11A4600E022462F49F1
:10037000091F0A6029E0A94213D0B14215D0B94241
:1003800020D061451BD049451BD0514502D14FF4C7
:10039000001217E0414502D14FF0007212E05945BA
:1003A00001D102220EE0714501D120220AE0204D48
:1003B0001435A94206D01E4A2832914201D11A466C
:1003C00000E02246134908394A60002180F82010D5
:1003D000816A00291CD0BDE8F05F0847FFE70825C7
:1003E000A540154214D01A0712D50A6822F00E0251
:1003F0000A6090F84020C36B012101FA02F25A60B2
:10040000816380F82110002180F82010016BE0E763
:10041000BDE8F09F080002401C000240300002408E
:1004200044000240580002406C00024008040240B0
:100430001C04024070B504007ED05C4920685C4D0D
:1004400088422DD059491431884229D05749283142
:10045000884225D055493C31884221D053495031FA
:1004600088421DD051496431884219D04F497831B2
:10047000884215D0A84213D04D49143188420FD07C
:100480004B49283188420BD049493C31884207D03A
:1004900047495031884203D0AC21464801F0C3FBA4
:1004A000606840B1102806D0B0F5804F03D0AD2170
:1004B000404801F0B8FBA068402804D018B1AE2134
:1004C0003C4801F0B0FBE068802804D018B1AF21AF
:1004D000384801F0A8FB206948B1B0F5807F06D00C
:1004E000B0F5007F03D0B021324801F09CFB606979
:1004F00048B1B0F5806F06D0B0F5006F03D0B121E0
:100500002C4801F090FBA06928B1202803D0B2212B
:10051000284801F088FBE06960B1B0F5805F09D040
:10052000B0F5005F06D0B0F5405F03D0B32121489D
:1005300001F079FB142000E00CE02168A9420BD205
:100540001A4A52420A44B2FBF0F080002064174875
:1005500008380AE0012070BD154A52420A44B2FB35
:10056000F0F08000206412480838E063022084F82C
:1005700021000A6843F6F0708243F4E9010318434E
:10058000D4E902352B4318432369184363691843A0
:10059000A36918431043086000206062A062E06213
:1005A0002063606301216177207770BD08000240FD
:1005B00008040240D41C00082DE9F0418846044696
:1005C0000025581E4FF6FF711E461746884204D379
:1005D0004FF4C1711D4801F026FB94F8200001285A
:1005E0000DD0012084F8200094F82110002001296A
:1005F00007D084F8200002252846BDE8F0810220BB
:10060000FBE7022184F82110A0632068016821F033
:100610000101016033463A4641462046FFF7D0FDCE
:10062000E06A00282068016802D041F00E0106E06F
:1006300021F0040101602068016841F00A010160B5
:100640002068016841F001010160D5E7D41C000871
:100650002DE9F84FDFF8D0B20D4604464FF00009FF
:10066000584515D0B148844212D0B14884420FD0C9
:10067000B04884420CD0B048844209D0AF4884428C
:1006800006D0AF48844203D0CF21AE4801F0CBFA68
:1006900028680104090C01D0000C03D0D021A9481E
:1006A00001F0C1FA6868F8B101281DD011281BD0EB
:1006B000022819D0122817D0A349884214D0A34980
:1006C000884211D0A24988420ED0A24988420BD05C
:1006D000A149884208D0A149884205D0032803D007
:1006E000D121984801F09FFA00274FF0010A00BF7E
:1006F0002E680AFA07F806EA0806464575D15C45F1
:1007000015D08A48844212D0894884420FD0894843
:1007100084420CD08848844209D08848844206D05C
:100720008748844203D0DF21864801F07CFA86485E
:1007300069680A1A814259D00DDC032976D005DC9C
:10074000B1B3012919D002296BD132E0112921D08E
:10075000122966D13BE0B2F5881F47D006DCB2F51E
:10076000803F43D0B2F5801F5BD13FE0B2F5001F60
:100770003CD0B2F5041F54D138E0E868022807D015
:10078000012805D0032803D0E7216E4801F04BFA79
:10079000E86840E0E868022807D0012805D003286F
:1007A00003D0EE21674801F03EFAE868001D32E010
:1007B0001CE0E868022807D0012805D0032803D0F0
:1007C000F521604801F02FFAE868083023E0E86876
:1007D000022807D0012805D0032803D0FC2159485E
:1007E00001F021FAE8680C3015E091E0A86888B1C2
:1007F000012812D0022808D040F20911514801F016
:1008000012FAA86830B1012807D04FF00809C4F8DF
:10081000148006E00420814603E04FF00809C4F884
:100820001080FF2E05D8224605E0FFE74FF00000BC
:10083000F1E704F104024FEA870001D9A0F120009A
:1008400013684FF00F0101FA00FC23EA0C0309FAC8
:1008500000FC43EA0C0313606868C0005ED54048A2
:10086000826942F001028261806927F0030200F090
:10087000010000903B4813189868BA07120F914086
:1008800088435C4501D1002119E028498C4201D1FF
:10089000012114E026498C4201D102210FE02549B3
:1008A0008C4201D103210AE023498C4201D1042169
:1008B00005E022498C4201D1052100E0062191404A
:1008C000014399606868C00304D52749086830432C
:1008D000086003E024480168B14301606868800350
:1008E0002248016801D5314300E0B14301606868E6
:1008F000C0021F48016801D5314300E0B1430160E7
:100900006868800205D51A48001D016831430160FE
:1009100004E01749091D0868B04308607F1C102FC8
:10092000FFF4E6AEBDE8F88F00080140000C01407E
:10093000001001400014014000180140001C01405B
:1009400000200140181D00080000111000002110B7
:1009500000003110000012100000221000003210C0
:100960000010024000000140000401400404014066
:10097000080401400148006870470000680000203A
:1009800002480168491C01607047000068000020AF
:10099000074810B5016841F010010160032000F024
:1009A000A7F8002000F006F800F018F8002010BDAD
:1009B0000020024010B5044607484FF47A710068E1
:1009C000B0FBF1F000F063FC00222146501E00F065
:1009D0005BF8002010BD0000640000201E4808B530
:1009E000816941F001018161806900F0010000909E
:1009F000032000F07DF8002211466FF00B0000F09C
:100A000043F8002211466FF00A0000F03DF8002282
:100A100011466FF0090000F037F800221146501F10
:100A200000F032F800221146101F00F02DF80022CD
:100A30001146901E00F028F800221146501E00F0CA
:100A400023F80648416821F0E0614160416841F0C7
:100A50008061416008BD00000010024000000140BC
:100A600010B5040003D5D021064801F0DCF804F0ED
:100A70001F01012088406109890001F1E021C1F8CE
:100A8000000110BD8C1C000870B515460C460646CA
:100A9000102A03D3BC21144801F0C5F8102C03D34D
:100AA000BD21114801F0BFF810480068C0F30223CF
:100AB000C3F107022046042A00D90422191D072980
:100AC00001D2002300E0DB1E012404FA02F1491EDA
:100AD000014099409C40641E2C4021433046BDE8B3
:100AE000704000F0BBBE00008C1C00080CED00E064
:100AF00010B5044607280BD0062C09D0052C07D0CA
:100B0000042C05D0032C03D0A421084801F08BF855
:100B1000074904F0070208684FF6FF03184040EA4F
:100B20000220044A1043086010BD00008C1C00081D
:100B30000CED00E00000FA052DE9F0470E46050037
:100B400004D140F2CA21814801F06DF82868C1073C
:100B50000AD1810708D4410706D4000704D440F223
:100B6000CB217A4801F05FF846B1012E06D0022E63
:100B700004D04FF43371754801F055F8DFF8D08197
:100B8000D8F8000000F00700B0420CD2D8F80010EE
:100B900021F007013143C8F80010D8F8000000F038
:100BA0000700B04272D128786A4C80071CD5A8682B
:100BB000A0B1802812D0902810D0A0280ED0B02844
:100BC0000CD0C0280AD0D02808D0E02806D0F028C1
:100BD00004D040F2E5215D4801F025F86068A9687D
:100BE00020F0F000084360602878C00753D06868A0
:100BF00068B1012821D0022822D04FF43B7153481C
:100C000001F011F86868012817D0022818D0206870
:100C10008007002850DA6068696820F00300084304
:100C20006060FFF7A7FE6968074641F28830012936
:100C300010D0022981461AD029E020688003E8E715
:100C400020688001E5E700BFFFF794FEC11B49451E
:100C500001D918E081466068C0F381000128F3D112
:100C600019E000BFFFF786FEC11B49450BD860683D
:100C7000C0F381000228F5D10DE000BFFFF77AFE36
:100C8000C11B494503D90320BDE8F08714E0606823
:100C900010F00C0FF2D1D8F80010404601F0070117
:100CA000B1420BD9016821F00701314301600068AE
:100CB00000F00700B04201D00120E5E728784FF4AA
:100CC000806640074FF4A0674FF4C0684FF4E069B6
:100CD00014D5E86860B1B0420AD0B84208D04045A7
:100CE00006D0484504D04FF45071184800F09BFFDF
:100CF0006068E96820F4E0600843606028780007D5
:100D000015D5286960B1B0420AD0B84208D0404534
:100D100006D0484504D040F247310C4800F083FF2C
:100D20006068296920F4605040EAC100606000F00A
:100D30003DF86168084AC1F30311515CC840074996
:100D400008600020FFF736FE00209DE75C1D0008CC
:100D50000020024000100240741C000864000020C3
:100D600001480068704700006400002004480549FD
:100D700000684968044AC1F30221515CC8407047C9
:100D80006400002000100240841C0008044805494B
:100D900000684968044AC1F3C221515CC8407047E9
:100DA0006400002000100240841C000810B512A34B
:100DB00085B00FCB8DE80F0013A0144B0068049092
:100DC0005A68134802F00C0104290FD008290DD1EC
:100DD000C2F38344D2031DF8041009D55A6804AB4A
:100DE000C2F340429A5CB0FBF2F0484305B010BD3C
:100DF00008484843FAE7000002030405060708090B
:100E00000A0B0C0D0E0F1010010200000010024022
:100E100000127A0000093D002DE9F84F040004D1CA
:100E20004FF48671FB4800F0FEFEFB4EFB4D206840
:100E30004FF0010A4FF000084FF4803960B1C1074C
:100E40000DD1810763D401077ED440077DD440F2E1
:100E50000D11F04800F0E7FE2078C00754D060681C
:100E60004FF4A02740B1484506D0B84204D040F224
:100E70001311E84800F0D7FE6868C0F3810001282C
:100E800007D06868C0F38100022809D16868C003F0
:100E900006D52868800337D56068002876D033E00F
:100EA0006068484503D1286840F4803009E008B103
:100EB000B8420DD0286820F480302860286820F4DB
:100EC00080202860606890B1FFF754FD07460AE073
:100ED000286840F480202860E5E700BFFFF74AFD5E
:100EE000C01B642877D828688003F7D50CE0FFF78B
:100EF00041FD074605E000BFFFF73CFDC01B64282D
:100F0000F0D828688003F7D4207880074ED5206970
:100F100030B1012804D040F24711BE4800F083FEF2
:100F200060691F2804D94FF4A471BA4800F07BFE11
:100F3000686810F00C0F0AD06868C0F381000228BE
:100F40000CD16868C00301E033E06CE006D4286887
:100F5000800713D52069012818D10FE02069B0B1AE
:100F6000C6F800A0FFF706FD074604E0FFF702FD04
:100F7000C01B0228B6D828688007F7D528686169A1
:100F800020F0F80040EAC10028600FE041E1C6F817
:100F90000080FFF7EFFC074605E000BFFFF7EAFC23
:100FA000C01B02289ED828688007F7D42078000745
:100FB00036D59B4FA06920B3012806D04FF4C471E9
:100FC000944800F030FEA069D8B1C7F800A0FFF740
:100FD000D1FC074605E09FE0FFF7CCFCC01B0228D0
:100FE0008ED8686A8007F7D58E484FF4FA510068AA
:100FF000B0FBF1F0009000BF0098411E0091FAD2C2
:101000000EE0C7F80080FFF7B5FC074605E000BF1B
:10101000FFF7B0FCC01B02287ED8686A8007F7D4AF
:10102000207840076CD5E068002740B1012806D041
:10103000052804D040F2B711764800F0F4FDE869C5
:10104000C00008D4E86940F08050E861E8690127F1
:1010500000F08050009074480168C90512D40168FE
:1010600041F480710160FFF785FC834606E000BF14
:10107000FFF780FCA0EB0B0064284DD86A4800689D
:10108000C005F5D5E06801280AD008B1052811D0BF
:10109000286A20F001002862286A20F0040002E09B
:1010A000286A40F001002862E068A8B1FFF762FCFE
:1010B00083460DE0286A40F004002862F0E700BF94
:1010C000FFF758FCA0EB0B0141F28830814223D896
:1010D000286A8007F4D50EE0FFF74CFC834607E052
:1010E000FFF748FCA0EB0B0141F28830814213D896
:1010F000286A8007F4D41FB1E86920F08050E861C5
:10110000E069E8B301280AD0022808D040F255214E
:10111000404800F088FD00E097E0E06980B368682F
:10112000C0F38100022874D0E069022805D0C6F817
:101130006080FFF71FFC04468AE0206A30B1484512
:1011400004D040F25E21334800F06DFD606A80B348
:10115000B0F5802F2DD0B0F5002F2AD0B0F5402F5C
:1011600027D0B0F5801F24D0B0F5A01F21D0B0F556
:10117000C01F1ED0B0F5E01F1BD0B0F5001F00E06F
:1011800069E016D0B0F5101F13D0B0F5201F10D0B5
:10119000B0F5301F0DD0B0F5401F0AD0B0F5501F8C
:1011A00007D0B0F5601F04D040F25F21194800F06D
:1011B0003AFDC6F86080FFF7DDFB074605E000BF9B
:1011C000FFF7D8FBC01B02283FD828688001F7D45E
:1011D000206A48450FD1A06838B1B0F5003F04D06F
:1011E00040F275210B4800F01EFD6868A16820F4EC
:1011F000003008436860D4E908010843696821F4B5
:10120000741108436860C6F860A0FFF7B3FB04469A
:1012100011E022E05C1D0008000042420010024084
:10122000800442426400002000700040FFF7A2FBEF
:10123000001B022809D828688001F7D50BE000BF01
:10124000FFF798FB001B022802D90320BDE8F88FA6
:1012500028688001F4D40020F8E70120F6E70000B8
:1012600010B54FF0E024042809D020B140F2DB1182
:10127000054800F0D8FC206920F0040002E0206955
:1012800040F00400206110BD8C1C0008704710B5B0
:10129000401EB0F1807F01D3012010BD4FF0E0244B
:1012A00060610F21601700F0D9FA0020A0610720CB
:1012B0002061002010BD10B5FFF7E8FF10BD70479A
:1012C00070B5040020D0A06933490028334A344B5C
:1012D00020681BD088420AD0904208D0984206D09D
:1012E00040F211112F4800F09EFCA069F8B1A069EE
:1012F000B0F5807F1BD0B0F5007F18D0B0F5407FEF
:1013000015D04FF489710FE0012070BD88420ED0D6
:1013100090420CD098420AD02349884207D02349F2
:10132000884204D04FF48B711E4800F07CFCA0680A
:1013300038B1B0F5805F04D04FF48C71194800F0DB
:1013400072FC94F83900002520B984F83850204602
:1013500000F02EF8242084F839002068C16821F4B8
:101360000051C160204600F065FB2068016921F44E
:10137000904101612068416921F02A0141612068A2
:10138000C16841F40051C160E563202084F8390050
:1013900084F83A00002070BD00380140004400404D
:1013A00000480040A01D0008004C004000500040D4
:1013B0002DE9F04F044603684F48DFF838C1022199
:1013C000032206150025802785B04FF400584FF002
:1013D00010094FF4805A634543D1836943F4804335
:1013E00083618069DFF814B100F480400490080242
:1013F000CDE90001039269465846FFF729F9CDE986
:101400000065694658460295FFF722F93D4E3C4873
:10141000C6E90005C6E9025735617561C6E9065897
:101420003046FFF707F818B1862137A000F0EBFB34
:1014300066637462334E324844361438C6E9025744
:1014400035617561C6E90009C6E9065A3046FEF7FE
:10145000F1FF08B1962148E02663746205B0BDE84B
:10146000F08FDFF8C0C06345F8D1C36943F480232F
:10147000C361C069CDE9006100F48020CDE903209B
:10148000294E69463046FFF7E3F8F014CDE9000530
:10149000694630460295FFF7DBF81A4E1848883641
:1014A0002838C6E90005C6E9025735617561C6E905
:1014B00006583046FEF7BEFF18B1C12112A000F059
:1014C000A2FB666374620F4E0D48CC363C38C6E909
:1014D000025735617561C6E90009C6E9065A30460A
:1014E000FEF7A8FF0028B7D0D12107A000F08BFBA2
:1014F000B2E700000038014000100240000801403F
:1015000058000240F80000202E2E5C447269766577
:10151000725C48414C5C5372635C75736172742EEB
:101520006300000000480040000C0140F8B504468C
:1015300090F83A0020283CD1C1B3BAB394F83800EF
:10154000012836D0012084F83800A162A285002548
:10155000E563222084F83A00636B17489862636B56
:101560001648D862636B16481863606B1346456370
:101570000846666B216802463046091DFFF71CF8D5
:10158000206801684168009184F83850C16841F4CE
:101590008071C1602068416941F0010141612068AA
:1015A000416941F0400141610020F8BDFFE70120A1
:1015B000FBE70220F9E7000087190008C3190008BB
:1015C0003D1900087047704770B5044690F839001F
:1015D000202830D169B362B394F8380001282AD0AA
:1015E000012084F838002162A284E2840025E563AA
:1015F000212084F83900236B10489862236B10482F
:10160000D862236B0F481863206B13464563266826
:10161000206B321DFEF7D0FF21686FF0400008609C
:1016200084F838502068416941F080014161002010
:1016300070BD012070BD022070BD0000CD190008F2
:10164000FB1900083D19000870477047FEE70000CD
:10165000154808B5416941F0010141614069002226
:1016600000F00100009011460C20FFF70DFA0C204D
:10167000FFF7F6F9002211460D20FFF705FA0D20BD
:10168000FFF7EEF9002211460E20FFF7FDF90E20BC
:10169000FFF7E6F9002211460F20FFF7F5F9BDE844
:1016A00008400F20FFF7DCB90010024030B5364883
:1016B00085B0816941F040018161816901F040019B
:1016C0000491816941F010018161816901F010018B
:1016D0000491816941F080018161816901F080019B
:1016E0000491816941F004018161816901F0040183
:1016F0000491816941F008018161816901F008016B
:101700000491816941F480718161816901F4807182
:101710000491816941F02001816180694FF6FF7574
:10172000032400F02000CDE90054049069461748D6
:10173000FEF78EFFCDE9005469461548FEF788FF95
:10174000CDE9005469461348FEF782FF4FF6FF10BB
:10175000CDE9000469461048FEF77AFF4FF2FF30EA
:10176000CDE9000469460D48FEF772FFCDE900544B
:1017700069460B48FEF76CFFCDE9005469460948FD
:10178000FEF766FF05B030BD0010024000180140B2
:1017900000100140001C014000080140000C014005
:1017A00000200140001401400D4810B50B490160B4
:1017B0004FF4E1314160002181600C22C160C0E939
:1017C00004128161C161FFF77BFD002805D0BDE8EF
:1017D0001040482103A000F016BA10BD00380140A7
:1017E000780000202E2E5C4472697665725C484158
:1017F0004C5C5372635C75736172742E63000000FD
:101800000D4810B50B4901604FF4E13141600021F2
:1018100081600C22C160C0E904128161C161FFF7DF
:101820004FFD002805D0BDE810405B2103A000F06B
:10183000EAB910BD00480040B80000202E2E5C44DC
:1018400072697665725C48414C5C5372635C757377
:101850006172742E63000000FEE770470907090EED
:10186000002806DA00F00F0000F1E02080F8141DD7
:10187000704700F1E02080F800147047704770470F
:1018800010B5FFF77DF8BDE81040FFF714BD30B587
:101890008FB00225012004900095102005900024AF
:1018A0004FF46010CDE9084007956846FFF7B4FA99
:1018B00000B1FEE70F20CDE90A054FF48060CDE9C5
:1018C0000C4002210AA80E94FFF736F900B1FEE79A
:1018D000FFF746FA4FF47A71B0FBF1F0FFF7D7FC4F
:1018E0000420FFF7BDFC00221146501EFFF7CCF884
:1018F0000FB030BD0D48016841F001010160416841
:101900000B4A1140416001680A4A114001600168B8
:1019100021F480210160416821F4FE0141604FF40F
:101920001F0181600449C003086070470010024035
:101930000000FFF8FFFFF6FE08ED00E070B5446A16
:101940002068406994F83910C0F3C010002521299F
:1019500004D118B1E584204600F062F8206840699F
:1019600094F83A10C0F38010222904D118B1E5850B
:10197000204600F047F8E06B40F01000E06320469E
:10198000FFF79DFC70BD10B50146406A0968096803
:10199000890613D40021C1850168CA6822F48072C7
:1019A000CA6001684A6922F001024A6101684A6915
:1019B00022F040024A61202180F83A10FFF702FE2F
:1019C00010BD10B5406AFFF7FEFD10BD10B5014611
:1019D000406A0968096889060CD40021C18401683D
:1019E0004A6922F080024A610068C16841F0400102
:1019F000C16010BDFFF728FE10BD10B5406AFFF7AB
:101A000024FE10BD0168CA6822F49072CA600168A1
:101A10004A6922F001024A61202180F83A10704799
:101A20000168CA6822F0C002CA60202180F839101B
:101A3000704700002DE9F041044640686E49884235
:101A400004D340F6A9116D4800F0EDF8E06838B114
:101A5000B0F5005F04D040F6AA11684800F0E3F842
:101A6000206950B1B0F5806F07D0B0F5C06F04D0D9
:101A700040F6AB11614800F0D6F860694FF6F3719B
:101A8000084200D120B940F6AC115C4800F0CBF818
:101A900020680169E26821F4405111430161216924
:101AA000A0680843616908432168CA6841F20C6371
:101AB0009A430243CA6020684169A26921F44071D7
:101AC000114341614E4920686425322688423CD149
:101AD000FFF75CF900EBC00101EB001061688900C1
:101AE000B0FBF1F7FFF752F900EBC00101EB00107A
:101AF0006168B0468900B0FBF1F0B0FBF5F06FF023
:101B00001801484307EB800106EB0110B0FBF5F02C
:101B100000F0F006FFF73AF900EBC00101EB00100E
:101B200061688900B0FBF1F0B0FBF5F006EB001640
:101B3000FFF72CF900EBC00101EB00106168890090
:101B4000B0FBF1F7FFF722F93BE0FFF70FF900EBED
:101B5000C00101EB001061688900B0FBF1F7FFF7ED
:101B600005F900EBC00101EB00106168B046890087
:101B7000B0FBF1F0B0FBF5F06FF01801484307EB54
:101B8000800106EB0110B0FBF5F000F0F006FFF766
:101B9000EDF800EBC00101EB001061688900B0FBBB
:101BA000F1F0B0FBF5F006EB0016FFF7DFF800EB05
:101BB000C00101EB001061688900B0FBF1F7FFF78D
:101BC000D5F800EBC00101EB001061688900B0FBA3
:101BD000F1F0B0FBF5F06FF01801484307EB80011E
:101BE00008EB0110B0FBF5F0216800F00F00304465
:101BF0008860BDE8F081000021AA4400A01D000813
:101C000000380140FEE7FEE702E008C8121F08C1E5
:101C1000002AFAD170477047002001E001C1121F6D
:101C2000002AFBD170477047FEF7B2FEFFF72FFE88
:101C3000FFF73CFDFFF70CFDFFF7B6FDFFF7E0FDFA
:101C40000948FFF73DFB00B1FEE76122074906485E
:101C5000FFF7BAFC00B1FEE70A2205490248FFF788
:101C600065FC00B1FEE7FEE77800002000000020E0
:101C70006C000020000000000000000001020304CE
:101C80000607080900000000010203042E2E5C4430
:101C900072697665725C48414C5C44726976657223
:101CA000735C53544D3332463178785F48414C5F12
:101CB0004472697665725C5372635C73746D33321F
:101CC000663178785F68616C5F636F727465782ED7
:101CD000630000002E2E5C4472697665725C484198
:101CE0004C5C447269766572735C53544D33324672
:101CF0003178785F48414C5F4472697665725C5315
:101D000072635C73746D3332663178785F68616CCE
:101D10005F646D612E6300002E2E5C4472697665EF
:101D2000725C48414C5C447269766572735C5354D2
:101D30004D3332463178785F48414C5F4472697662
:101D400065725C5372635C73746D3332663178789C
:101D50005F68616C5F6770696F2E63002E2E5C4454
:101D600072697665725C48414C5C44726976657252
:101D7000735C53544D3332463178785F48414C5F41
:101D80004472697665725C5372635C73746D33324E
:101D9000663178785F68616C5F7263632E63000000
:101DA0002E2E5C4472697665725C48414C5C4472CC
:101DB00069766572735C53544D3332463178785F7F
:101DC00048414C5F4472697665725C5372635C7320
:101DD000746D3332663178785F68616C5F756172FB
:101DE000742E6300041E0008000000206C00000038
:101DF000081C0008701E00086C0000209C050000F4
:101E0000181C00080A0D202A2A2A2A554152542D4E
:101E100048797065727465726D696E616C20636F6C
:101E20006D6D756E69636174696F6E206261736553
:101E300064206F6E20444D412A2A2A2A0A0D20452B
:101E40006E746572203130206368617261637465FD
:101E50007273207573696E67206B6579626F61724A
:101E600064203A0A0D00000000A24A0400000000AD
:0400000508000131BD
:00000001FF
